{
  "contractName": "LandRegistration",
  "abi": [
    {
      "anonymous": false,
      "inputs": [
        {
          "indexed": true,
          "internalType": "uint256",
          "name": "landId",
          "type": "uint256"
        },
        {
          "indexed": true,
          "internalType": "address",
          "name": "owner",
          "type": "address"
        },
        {
          "indexed": false,
          "internalType": "string",
          "name": "location",
          "type": "string"
        },
        {
          "indexed": false,
          "internalType": "uint256",
          "name": "area",
          "type": "uint256"
        }
      ],
      "name": "LandRegistered",
      "type": "event"
    },
    {
      "inputs": [],
      "name": "landCount",
      "outputs": [
        {
          "internalType": "uint256",
          "name": "",
          "type": "uint256"
        }
      ],
      "stateMutability": "view",
      "type": "function"
    },
    {
      "inputs": [
        {
          "internalType": "uint256",
          "name": "",
          "type": "uint256"
        }
      ],
      "name": "lands",
      "outputs": [
        {
          "internalType": "address",
          "name": "owner",
          "type": "address"
        },
        {
          "internalType": "string",
          "name": "location",
          "type": "string"
        },
        {
          "internalType": "uint256",
          "name": "area",
          "type": "uint256"
        },
        {
          "internalType": "bool",
          "name": "isRegistered",
          "type": "bool"
        }
      ],
      "stateMutability": "view",
      "type": "function"
    },
    {
      "inputs": [
        {
          "internalType": "address",
          "name": "_owner",
          "type": "address"
        },
        {
          "internalType": "string",
          "name": "_location",
          "type": "string"
        },
        {
          "internalType": "uint256",
          "name": "_area",
          "type": "uint256"
        }
      ],
      "name": "registerLand",
      "outputs": [
        {
          "internalType": "uint256",
          "name": "",
          "type": "uint256"
        }
      ],
      "stateMutability": "nonpayable",
      "type": "function"
    },
    {
      "inputs": [
        {
          "internalType": "uint256",
          "name": "_landId",
          "type": "uint256"
        },
        {
          "internalType": "address",
          "name": "_newOwner",
          "type": "address"
        }
      ],
      "name": "transferLandOwnership",
      "outputs": [],
      "stateMutability": "nonpayable",
      "type": "function"
    },
    {
      "inputs": [
        {
          "internalType": "uint256",
          "name": "_landId",
          "type": "uint256"
        }
      ],
      "name": "getLandDetails",
      "outputs": [
        {
          "internalType": "address",
          "name": "owner",
          "type": "address"
        },
        {
          "internalType": "string",
          "name": "location",
          "type": "string"
        },
        {
          "internalType": "uint256",
          "name": "area",
          "type": "uint256"
        },
        {
          "internalType": "bool",
          "name": "isRegistered",
          "type": "bool"
        }
      ],
      "stateMutability": "view",
      "type": "function"
    }
  ],
  "bytecode": "0x608060405234801561000f575f80fd5b506111468061001d5f395ff3fe608060405234801561000f575f80fd5b5060043610610055575f3560e01c80634bde01f714610059578063c64ab4cf14610089578063d7bce658146100a5578063e261f1e5146100c3578063fe0cb7dc146100f6575b5f80fd5b610073600480360381019061006e9190610925565b610129565b60405161008091906109a0565b60405180910390f35b6100a3600480360381019061009e91906109b9565b610365565b005b6100ad61051b565b6040516100ba91906109a0565b60405180910390f35b6100dd60048036038101906100d891906109f7565b610521565b6040516100ed9493929190610ac5565b60405180910390f35b610110600480360381019061010b91906109f7565b6105fd565b6040516101209493929190610ac5565b60405180910390f35b5f8073ffffffffffffffffffffffffffffffffffffffff168473ffffffffffffffffffffffffffffffffffffffff1603610198576040517f08c379a000000000000000000000000000000000000000000000000000000000815260040161018f90610b59565b60405180910390fd5b5f8351116101db576040517f08c379a00000000000000000000000000000000000000000000000000000000081526004016101d290610bc1565b60405180910390fd5b5f821161021d576040517f08c379a000000000000000000000000000000000000000000000000000000000815260040161021490610c29565b60405180910390fd5b60015f81548092919061022f90610c74565b919050555060405180608001604052808573ffffffffffffffffffffffffffffffffffffffff168152602001848152602001838152602001600115158152505f8060015481526020019081526020015f205f820151815f015f6101000a81548173ffffffffffffffffffffffffffffffffffffffff021916908373ffffffffffffffffffffffffffffffffffffffff16021790555060208201518160010190816102d99190610eb5565b50604082015181600201556060820151816003015f6101000a81548160ff0219169083151502179055509050508373ffffffffffffffffffffffffffffffffffffffff166001547f09f87bd638cbe9814396205461896d192bb615baa655b37f43ef8414a75b7fd58585604051610351929190610f84565b60405180910390a360015490509392505050565b5f73ffffffffffffffffffffffffffffffffffffffff168173ffffffffffffffffffffffffffffffffffffffff16036103d3576040517f08c379a00000000000000000000000000000000000000000000000000000000081526004016103ca90610ffc565b60405180910390fd5b5f808381526020019081526020015f206003015f9054906101000a900460ff16610432576040517f08c379a000000000000000000000000000000000000000000000000000000000815260040161042990611064565b60405180910390fd5b5f805f8481526020019081526020015f209050805f015f9054906101000a900473ffffffffffffffffffffffffffffffffffffffff1673ffffffffffffffffffffffffffffffffffffffff163373ffffffffffffffffffffffffffffffffffffffff16146104d5576040517f08c379a00000000000000000000000000000000000000000000000000000000081526004016104cc906110f2565b60405180910390fd5b81815f015f6101000a81548173ffffffffffffffffffffffffffffffffffffffff021916908373ffffffffffffffffffffffffffffffffffffffff160217905550505050565b60015481565b5f602052805f5260405f205f91509050805f015f9054906101000a900473ffffffffffffffffffffffffffffffffffffffff169080600101805461056490610ce8565b80601f016020809104026020016040519081016040528092919081815260200182805461059090610ce8565b80156105db5780601f106105b2576101008083540402835291602001916105db565b820191905f5260205f20905b8154815290600101906020018083116105be57829003601f168201915b505050505090806002015490806003015f9054906101000a900460ff16905084565b5f60605f805f808681526020019081526020015f206003015f9054906101000a900460ff16610661576040517f08c379a000000000000000000000000000000000000000000000000000000000815260040161065890611064565b60405180910390fd5b5f805f8781526020019081526020015f209050805f015f9054906101000a900473ffffffffffffffffffffffffffffffffffffffff16816001018260020154836003015f9054906101000a900460ff168280546106bd90610ce8565b80601f01602080910402602001604051908101604052809291908181526020018280546106e990610ce8565b80156107345780601f1061070b57610100808354040283529160200191610734565b820191905f5260205f20905b81548152906001019060200180831161071757829003601f168201915b505050505092509450945094509450509193509193565b5f604051905090565b5f80fd5b5f80fd5b5f73ffffffffffffffffffffffffffffffffffffffff82169050919050565b5f6107858261075c565b9050919050565b6107958161077b565b811461079f575f80fd5b50565b5f813590506107b08161078c565b92915050565b5f80fd5b5f80fd5b5f601f19601f8301169050919050565b7f4e487b71000000000000000000000000000000000000000000000000000000005f52604160045260245ffd5b610804826107be565b810181811067ffffffffffffffff82111715610823576108226107ce565b5b80604052505050565b5f61083561074b565b905061084182826107fb565b919050565b5f67ffffffffffffffff8211156108605761085f6107ce565b5b610869826107be565b9050602081019050919050565b828183375f83830152505050565b5f61089661089184610846565b61082c565b9050828152602081018484840111156108b2576108b16107ba565b5b6108bd848285610876565b509392505050565b5f82601f8301126108d9576108d86107b6565b5b81356108e9848260208601610884565b91505092915050565b5f819050919050565b610904816108f2565b811461090e575f80fd5b50565b5f8135905061091f816108fb565b92915050565b5f805f6060848603121561093c5761093b610754565b5b5f610949868287016107a2565b935050602084013567ffffffffffffffff81111561096a57610969610758565b5b610976868287016108c5565b925050604061098786828701610911565b9150509250925092565b61099a816108f2565b82525050565b5f6020820190506109b35f830184610991565b92915050565b5f80604083850312156109cf576109ce610754565b5b5f6109dc85828601610911565b92505060206109ed858286016107a2565b9150509250929050565b5f60208284031215610a0c57610a0b610754565b5b5f610a1984828501610911565b91505092915050565b610a2b8161077b565b82525050565b5f81519050919050565b5f82825260208201905092915050565b5f5b83811015610a68578082015181840152602081019050610a4d565b5f8484015250505050565b5f610a7d82610a31565b610a878185610a3b565b9350610a97818560208601610a4b565b610aa0816107be565b840191505092915050565b5f8115159050919050565b610abf81610aab565b82525050565b5f608082019050610ad85f830187610a22565b8181036020830152610aea8186610a73565b9050610af96040830185610991565b610b066060830184610ab6565b95945050505050565b7f496e76616c6964206f776e6572206164647265737300000000000000000000005f82015250565b5f610b43601583610a3b565b9150610b4e82610b0f565b602082019050919050565b5f6020820190508181035f830152610b7081610b37565b9050919050565b7f496e76616c6964206c6f636174696f6e000000000000000000000000000000005f82015250565b5f610bab601083610a3b565b9150610bb682610b77565b602082019050919050565b5f6020820190508181035f830152610bd881610b9f565b9050919050565b7f496e76616c6964206172656100000000000000000000000000000000000000005f82015250565b5f610c13600c83610a3b565b9150610c1e82610bdf565b602082019050919050565b5f6020820190508181035f830152610c4081610c07565b9050919050565b7f4e487b71000000000000000000000000000000000000000000000000000000005f52601160045260245ffd5b5f610c7e826108f2565b91507fffffffffffffffffffffffffffffffffffffffffffffffffffffffffffffffff8203610cb057610caf610c47565b5b600182019050919050565b7f4e487b71000000000000000000000000000000000000000000000000000000005f52602260045260245ffd5b5f6002820490506001821680610cff57607f821691505b602082108103610d1257610d11610cbb565b5b50919050565b5f819050815f5260205f209050919050565b5f6020601f8301049050919050565b5f82821b905092915050565b5f60088302610d747fffffffffffffffffffffffffffffffffffffffffffffffffffffffffffffffff82610d39565b610d7e8683610d39565b95508019841693508086168417925050509392505050565b5f819050919050565b5f610db9610db4610daf846108f2565b610d96565b6108f2565b9050919050565b5f819050919050565b610dd283610d9f565b610de6610dde82610dc0565b848454610d45565b825550505050565b5f90565b610dfa610dee565b610e05818484610dc9565b505050565b5b81811015610e2857610e1d5f82610df2565b600181019050610e0b565b5050565b601f821115610e6d57610e3e81610d18565b610e4784610d2a565b81016020851015610e56578190505b610e6a610e6285610d2a565b830182610e0a565b50505b505050565b5f82821c905092915050565b5f610e8d5f1984600802610e72565b1980831691505092915050565b5f610ea58383610e7e565b9150826002028217905092915050565b610ebe82610a31565b67ffffffffffffffff811115610ed757610ed66107ce565b5b610ee18254610ce8565b610eec828285610e2c565b5f60209050601f831160018114610f1d575f8415610f0b578287015190505b610f158582610e9a565b865550610f7c565b601f198416610f2b86610d18565b5f5b82811015610f5257848901518255600182019150602085019450602081019050610f2d565b86831015610f6f5784890151610f6b601f891682610e7e565b8355505b6001600288020188555050505b505050505050565b5f6040820190508181035f830152610f9c8185610a73565b9050610fab6020830184610991565b9392505050565b7f496e76616c6964206e6577206f776e65722061646472657373000000000000005f82015250565b5f610fe6601983610a3b565b9150610ff182610fb2565b602082019050919050565b5f6020820190508181035f83015261101381610fda565b9050919050565b7f4c616e6420646f6573206e6f74206578697374000000000000000000000000005f82015250565b5f61104e601383610a3b565b91506110598261101a565b602082019050919050565b5f6020820190508181035f83015261107b81611042565b9050919050565b7f4f6e6c7920746865206f776e65722063616e207472616e7366657220746865205f8201527f6c616e6400000000000000000000000000000000000000000000000000000000602082015250565b5f6110dc602483610a3b565b91506110e782611082565b604082019050919050565b5f6020820190508181035f830152611109816110d0565b905091905056fea2646970667358221220ce921552172c4fe1c661319065a6477739c1f7280d1d52521dc659d47aa9466f64736f6c63430008150033",
  "immutableReferences": {},
  "source": "//SPDX-License-Identifier: MIT\r\npragma solidity ^0.8.0;\r\n\r\ncontract LandRegistration {\r\n    struct Land {\r\n        address owner;\r\n        string location;\r\n        uint256 area;\r\n        bool isRegistered;\r\n    }\r\n\r\n    mapping(uint256 => Land) public lands;\r\n    uint256 public landCount;\r\n\r\n    event LandRegistered(uint256 indexed landId, address indexed owner, string location, uint256 area);\r\n\r\n    // Function to register a new land\r\n    function registerLand(address _owner, string memory _location, uint256 _area) public returns (uint256) {\r\n        require(_owner != address(0), \"Invalid owner address\");\r\n        require(bytes(_location).length > 0, \"Invalid location\");\r\n        require(_area > 0, \"Invalid area\");\r\n\r\n        landCount++;\r\n        lands[landCount] = Land(_owner, _location, _area, true);\r\n        emit LandRegistered(landCount, _owner, _location, _area);\r\n        return landCount;\r\n    }\r\n\r\n    // Function to transfer ownership of a land\r\n    function transferLandOwnership(uint256 _landId, address _newOwner) public {\r\n        require(_newOwner != address(0), \"Invalid new owner address\");\r\n        require(lands[_landId].isRegistered, \"Land does not exist\");\r\n\r\n        Land storage land = lands[_landId];\r\n        require(msg.sender == land.owner, \"Only the owner can transfer the land\");\r\n\r\n        land.owner = _newOwner;\r\n    }\r\n\r\n    // Function to get land details\r\n    function getLandDetails(uint256 _landId) public view returns (address owner, string memory location, uint256 area, bool isRegistered) {\r\n        require(lands[_landId].isRegistered, \"Land does not exist\");\r\n        Land storage land = lands[_landId];\r\n        return (land.owner, land.location, land.area, land.isRegistered);\r\n    }\r\n}\r\n",
  "sourcePath": "C:\\Users\\Mhod shamsad\\OneDrive\\Desktop\\block\\contracts\\Contract.sol",
  "compiler": {
    "name": "solc",
    "version": "0.8.21+commit.d9974bed.Emscripten.clang"
  },
  "schemaVersion": "3.4.16",
  "updatedAt": "2024-03-31T04:51:34.824Z",
  "devdoc": {
    "kind": "dev",
    "methods": {},
    "version": 1
  },
  "userdoc": {
    "kind": "user",
    "methods": {},
    "version": 1
  }
}